:020000040800F2
:10000000A806002045010008C11100083F0F0008A4
:10001000BD110008C50700086125000800000000A8
:10002000000000000000000000000000E11D0008CA
:1000300069090008000000008D160008CD1E0008A8
:100040005F0100085F0100085F0100085F01000810
:100050005F0100085F0100085F0100085F01000800
:100060005F0100085F0100085F0100085F010008F0
:100070005F0100085F0100085F0100085F010008E0
:100080005F0100085F0100085F0100085F010008D0
:100090005F0100085F0100085F0100081D0C0008F7
:1000A0005F0100085F0100085F0100085F010008B0
:1000B0005F010008311F00085F0100085F010008B0
:1000C0005F0100085F0100085F0100085F01000890
:1000D0005F010008E92200085F0100085F010008D5
:1000E000250B00085F0100085F0100085F010008A0
:1000F0005F0100085F0100085F0100085F01000860
:100100005F0100085F0100085F0100085F0100084F
:100110005F0100085F0100085F0100085F0100083F
:100120005F0100085F0100085F0100085F0100082F
:10013000DFF80CD000F0D8F800480047852500080B
:10014000A80600200648804706480047FEE7FEE76D
:10015000FEE7FEE7FEE7FEE7FEE7FEE7FEE7FEE777
:10016000D11E00083101000880EA010210B502F03A
:100170000043400022D04A001FD0010E01EB126163
:10018000C0F35600C2F3560240F4000042F40002ED
:10019000A0FB022000047F39140400D0401C50EA68
:1001A000124001D44000491EC2B20C0604EBD0102C
:1001B000401C4008802A02D003E0002010BD20F03F
:1001C0000100002900DA0020184310BD30B480EA95
:1001D000010202F0004530F0004221F0004013D04F
:1001E00090B1C30DD40DC2F31601C0F31600E41A8A
:1001F00041F4000140F400027D34914201D3641CBB
:1002000000E04900002C02DA30BC002070474FF4B7
:1002100000000023914201D3891A034340084FEAAA
:100220004101F7D151B1914202D14FF0004105E0B7
:1002300002D24FF0010101E06FF0010103EBC45065
:10024000284430BC00F019B896230022114600F073
:100250001DB820F00040C10DC0F3160040F40000AE
:100260007F2901DA00207047962903DCC1F196014D
:10027000C84070479639884070470029A8BF70472A
:10028000401C490008BF20F00100704710B4B0FACC
:1002900080FC00FA0CF050EA010404BF10BC704767
:1002A00049B1CCF1200421FA04F411FA0CF118BF81
:1002B000012121430843A3EB0C01CB1D4FEA006150
:1002C0004FEA102042BF002010BC704700EBC35023
:1002D00010440029A4BF10BC7047401C490008BF4F
:1002E00020F0010010BC7047064C074D06E0E068A6
:1002F00040F0010394E8070098471034AC42F6D36D
:10030000FFF71AFFC0250008E025000808B5012105
:10031000084601F087FA012140F20D2001F0B2FAFF
:100320004FF4004001F072FA0720ADF80000012000
:100330008DF8020000208DF803006946084800F09F
:100340001BFD0320ADF8000001208DF80200002005
:100350008DF803006946034800F00EFD08BD00005B
:1003600000080140000C014010B5FFF7CFFF00F07E
:1003700001F810BD00B591B0464800F031FA46488A
:10038000069046480790002008900620099000201B
:100390000A9080200B9040000C9080000D9020204F
:1003A0000E9000020F900020109006A9394800F02E
:1003B000BDFA0121374800F007FA37484C3800F001
:1003C00085F8012000F05EF90020019001208DF8F1
:1003D00008008DF809004FF460200390002004907D
:1003E00006208DF8140001A92B484C3800F0B0F815
:1003F00007230122002128484C3800F0D1F80623B9
:100400000222012124484C3800F0CAF806230322B6
:10041000022121484C3800F0C3F8062304220821A9
:100420001D484C3800F0BCF80623052209211A4863
:100430004C3800F0B5F807230622112116484C3835
:1004400000F0AEF8012114484C3800F034F80121D6
:1004500011484C3800F024F80F484C3800F0FCF8F4
:1004600000BF0D484C3800F069F80028F9D10A485F
:100470004C3800F001F900BF07484C3800F054F840
:100480000028F9D1012104484C3800F0EAF811B0F5
:1004900000BD0000080002404C240140380200204A
:1004A00021B1826842F00102826003E0826822F09A
:1004B00001028260704721B1826842F480728260DA
:1004C00003E0826822F480728260704710B50446AF
:1004D0001248844208D10121401501F0E3F90021BE
:1004E000601501F0DFF917E00D48844208D10121C1
:1004F000001501F0D7F90021201501F0D3F90BE028
:100500000848844208D10121C80301F0CBF9002139
:100510004FF4004001F0C6F910BD00000024014076
:1005200000280140003C0140014600208A6802F09A
:1005300004020AB1012000E00020704701460020BB
:100540008A6802F008020AB1012000E0002070472A
:1005500030B502460020002350680F4C20400D7932
:100560000C6844EA05242043506090680B4C2040FE
:10057000D1E902542C434D7944EA4504204390606C
:10058000D06A20F470000C7C641EE4B2234340EA7D
:100590000350D06230BD0000FFFEF0FFFDF7F1FF19
:1005A000F0B504460D4600200021092D11DDE0685C
:1005B000A5F10A0606EB4607072606FA07F1884367
:1005C000A5F10A0606EB460603FA06F10843E060C9
:1005D0000CE0206905EB4507072606FA07F188437A
:1005E00005EB450603FA06F108432061072A0FDAF6
:1005F000606B561E06EB86071F2606FA07F1884336
:10060000561E06EB860605FA06F10843606322E0F3
:100610000D2A0FDA206BD61F06EB86071F2606FA77
:1006200007F18843D61F06EB860605FA06F1084354
:10063000206310E0E06AA2F10D0606EB86071F2694
:1006400006FA07F18843A2F10D0606EB860605FAC5
:1006500006F10843E062F0BD816841F00801816065
:10066000704721B1826842F4A002826003E0826890
:1006700022F4A00282607047816841F00401816029
:100680007047000030B10749096841F40001054A8C
:10069000116005E00349096821F40001014A116075
:1006A00070470000082401400149086070470000BD
:1006B00000860D4210B500F08FFC00F01FFD4FF4D6
:1006C000E13001F001FF13A000F0FAFF4FF4FA70DF
:1006D00001F0D8FD15A000F0F3FF00F09FFF19A076
:1006E00000F0EEFFFFF740FE1BA000F0E9FF00F076
:1006F000C5FD1FA000F0E4FF00F0A4FE00F08EFD99
:1007000021A000F0DDFF27A000F0DAFF01202C4936
:10071000087010BD0D0A204C4544205553415254D9
:1007200020696E6974212121200D0A000D0A2054D0
:10073000696D65723320696E6974212121200D0A6B
:10074000000000000D0A204E76696320696E69740E
:10075000212121200D0A00000D0A204144433120AF
:10076000444D4120696E6974212121200D0A000049
:100770000D0A204E524632344C303120696E697475
:10078000212121200D0A00000D0A206E72663234EC
:100790004C303120636865636B6564212121200D35
:1007A0000A0000000D0A20447265616D5F466C7995
:1007B00065725F52432056312E31200D0A00000031
:1007C0007400002000BFFEE721B1026842F0010280
:1007D000026004E002684FF6FE731A400260704740
:1007E00001684FF6FE721140016000210160416016
:1007F0008160C1604B49884208D14A49083949683B
:1008000041F00F01474A083A51608AE045491431E6
:10081000884208D143490839496841F0F001414A0A
:10082000083A51607DE03F492831884208D13D496E
:100830000839496841F470613A4A083A516070E0F9
:1008400038493C31884208D136490839496841F471
:100850007041344A083A516063E03249503188426D
:1008600008D130490839496841F470212D4A083AC5
:10087000516056E02B496431884208D12949083932
:10088000496841F47001274A083A516049E0254916
:100890007831884208D123490839496841F07061AC
:1008A000204A083A51603CE01F49884206D1011FA6
:1008B000096841F00F01021F116032E01A4914313A
:1008C000884208D11849091F096841F0F001164A09
:1008D000121F116025E014492831884208D11249BD
:1008E000091F096841F470610F4A121F116018E076
:1008F0000D493C31884208D10B49091F096841F470
:100900007041094A121F11600BE0074950318842BB
:1009100007D10549091F096841F47021024A121FD5
:1009200011607047080002400804024010B5002220
:10093000026847F6F0739A430C6A8B6823430C698C
:1009400023434C6923438C692343CC6923434C6A7A
:1009500023438C6A23431A430260CB6843600B68CD
:1009600083604B68C36010BD7047002109E000221E
:1009700001E0531C9AB242F2B8239A42F9DB4B1CB5
:1009800099B28142F3DB704710B5544800780028D3
:100990007ED05348007800BB00205249088052495D
:1009A00008805249088052490880524908805249BB
:1009B00008805249088052490860524908605249EB
:1009C000086052490860524908605249086052491B
:1009D000086001204249087010BD41480078401C61
:1009E0003F4908704D480088454909680844444912
:1009F00008604A48408843490968084441490860FA
:100A0000464880884049096808443F49086043488F
:100A1000C0883E49096808443C4908603F4800894D
:100A20003B49096808443A4908603C4840893949CB
:100A30000968084437490860384880893649096898
:100A400008443549086026480078332843D12448B3
:100A50000078401E2249087029480068097890FBF8
:100A6000F1F0A0F2DC5000B21E4908802548006871
:100A70001B49097890FBF1F0A0F2DC5000B21A4952
:100A80000880214800681649097890FBF1F000E0E1
:100A900021E0A0F2DC5000B2144908801B48006835
:100AA0000F49097890FBF1F0A0F2DC5000B2104938
:100AB000088000200F4908800F4908800F490880EE
:100AC00007490870054908704FF4804014490861CF
:100AD000C820FFF74AFF00BF7EE700003400002077
:100AE0005400002036000020380000203A0000208A
:100AF0003C0000203E00002040000020420000207A
:100B0000580000205C0000206000002064000020ED
:100B1000680000206C000020700000208802002087
:100B20000010014010B54FF4005000F0A7F828B1B4
:100B30004FF4005000F09CF800F0F2FB4FF400403E
:100B400000F09CF8D8B14FF4004000F091F82D4827
:100B5000006864382C490968884210D9294800681F
:100B6000294908602948008814382849088008461F
:100B70000088B0F57A7F02DA4FF47A7008804FF47B
:100B8000006000F07BF8D8B14FF4006000F070F81E
:100B90001C48006864381E490968884210D9194801
:100BA00000681B49086019480088143017490880FC
:100BB00008460088B0F5FA6F02DD4FF4FA6008804D
:100BC0004FF4806000F05AF8D8B14FF4806000F024
:100BD0004FF80C48006864380E490968884210D9FB
:100BE000084800680B4908600B48008814380A4917
:100BF000088008460088B0F57A7F02DA4FF47A70F0
:100C0000088010BD2C0000200400002046000020B9
:100C1000080000200C0000204800002010B54FF410
:100C2000807000F02BF8D8B14FF4807000F020F8FD
:100C30000C48006864380C490968884210D9094892
:100C4000006809490860094800881430074908808D
:100C500008460088B0F5FA6F02DD4FF4FA600880AC
:100C600010BD00002C0000201000002048000020D3
:100C7000014908607047000014040140014600204B
:100C80000022074B1B6803EA0102054B14331B6863
:100C90000B4013B10AB1012000E0002070470000B2
:100CA00000040140002123498279002A3AD00A46F3
:100CB000126803689A430B461A600A1D126803689B
:100CC0009A430B1D1A60027911440A6803681A439B
:100CD0000A60184A0832126803689A43154B0833B1
:100CE0001A601A1D126803689A43124B0C331A607B
:100CF0004279102A0ED11A1F126803681A430D4B4D
:100D000008331A601A1D126803681A43094B0C3322
:100D10001A600DE00749427911440A6803681A43D2
:100D20000A6005E0027911440A6803689A430A6080
:100D3000704700000004014030B500228B071C0FF3
:100D40000F2303FA04F20B4B8C1053F82430934317
:100D5000084C8D1044F8253023468C1053F824306D
:100D60008C07240F00FA04F42343024C8D1044F83E
:100D7000253030BD080001402DE9F0410246002534
:100D80000026002000230024002791F803C00CF067
:100D90000F0591F803C00CF0100CBCF1000F03D04C
:100DA00091F802C04CEA050591F800C0BCF1000FB3
:100DB00031D0146800202BE04FF0010C0CFA00F346
:100DC000B1F800C00CEA03069E4220D183004FF028
:100DD0000F0C0CFA03F7BC4305FA03FC4CEA0404BD
:100DE00091F803C0BCF1280F06D14FF0010C0CFAAA
:100DF00000FCC2F814C00AE091F803C0BCF1480F2F
:100E000005D14FF0010C0CFA00FCC2F810C0401CD8
:100E10000828D1D31460B1F800C0BCF1FF0F34DD55
:100E2000546800202EE000F1080C4FF0010808FA89
:100E30000CF3B1F800C00CEA03069E4221D18300F6
:100E40004FF00F0C0CFA03F7BC4305FA03FC4CEA15
:100E5000040491F803C0BCF1280F05D100F1080C7F
:100E600008FA0CF8C2F8148091F803C0BCF1480FDE
:100E700007D100F1080C4FF0010808FA0CF8C2F88D
:100E80001080401C0828CED35460BDE8F0810000DB
:100E9000F0B50A46002300240021002500F000469A
:100EA000B6F1004F02D11D4EF16901E01B4E716891
:100EB000C0F3034583B200F44016B6F5401F08D1D5
:100EC00021F07061154E766826F07066134F7E60D3
:100ED00012E000F48016B6F5801F06D1032606FA4C
:100EE00005F4A14341F0706106E0460D360103FAB6
:100EF00006F6B14341F0706122B1460D360103FAA6
:100F000006F6314300F00046B6F1004F02D1034E21
:100F1000F16101E0014E7160F0BD00000000014090
:100F200010B501460020CB78002204E0D41C0C5DF3
:100F30006040541CE2B29C1CA242F7DB10BD00BF13
:100F4000FEE7000001461E4A12681E4B1A601E4A48
:100F50001278CAB11D4B1B8893FBF1F202EBD273DE
:100F6000C3F34F00174A1268194B1B68D21A82420A
:100F700024D31022174B1A600022134B1A70104A08
:100F80001268134B1A6019E0104B1B8893FBF1F2A7
:100F900002EBD273C3F34F000A4A12680C4B1B6872
:100FA000D21A82420AD310220A4B1B1D1A60012258
:100FB000054B1A70024A1268054B1A607047000010
:100FC0002C000020500000204A00002030000020AB
:100FD0004C000020100C01400EB501211D2000F036
:100FE00051FC01214148FFF753FF012000F048FB6D
:100FF000002000F0D1FC0020FFF756FB002000F09D
:101000003FFB4FF48040ADF8080003208DF80A0044
:1010100010208DF80B0002A93548FFF7ADFE18200F
:10102000ADF8080003208DF80A0010208DF80B00A1
:1010300002A93048FFF7A0FE1820ADF808000320F1
:101040008DF80A0010208DF80B0002A92948FFF73F
:1010500093FE4FF40040ADF8080048208DF80B00D7
:1010600002A92348FFF788FE4FF40060ADF808009E
:1010700048208DF80B0002A91E48FFF77DFE4FF4B3
:101080008060ADF8080048208DF80B0002A91948CF
:10109000FFF772FE4FF48070ADF8080048208DF81D
:1010A0000B0002A91448FFF767FE0B210120FFF790
:1010B00043FE0F210220FFF73FFE0A210120FFF728
:1010C0003BFE08210020FFF737FE4FF40D40009053
:1010D00000208DF804000C208DF8050001208DF80B
:1010E00006006846FFF7DEFD0EBD0000000230007E
:1010F00000100140000C01400008014010B5002420
:1011000019E01020124908600820091F0860C00279
:10111000104908616420FFF728FC08200C4908608A
:101120001020091F086080020A4948616420FFF707
:101130001CFC601CC4B2032CE3DB4FF48040054967
:10114000486110200249091F08600820086010BD8E
:10115000140C01400010014000B514480088C82854
:1011600004DD12480088B0F5A57F08DB1048008830
:10117000C82808DD0E480088B0F5B47F03DA0A20DD
:10118000FFF7E0FE11E00B48007838B14FF48040E3
:10119000094948610420FFF7D5FE06E04FF480407E
:1011A000054948610120FFF7CDFE00BD2600002063
:1011B00028000020440000200010014000BFFEE78E
:1011C0007047000010B50021124BDB785B1DDAB2CE
:1011D000032004E00F4B1B5C5940431CD8B29042E3
:1011E000F8DB0C4B9B5C8B4200D010BD094B1B788D
:1011F000242B00D0F9E7074B5B784D2B00D0F4E7A8
:10120000044B9B783E2B00D0EFE70823024C236071
:1012100000BFEAE794000020140C01401FB514A0A1
:1012200003C8CDE90201144903C9CDE9000110202A
:1012300000F04AFD052202A9302000F037F905220E
:101240006946102000F0CAF8002406E01DF80400EA
:10125000A52800D003E0601CC4B2052CF6DB00BF5B
:10126000052C02D0012004B010BD0020FBE70000D7
:10127000A5A5A5A5A5000000B82500080EB501216B
:10128000152000F0FFFA0820ADF8080010208DF8B6
:101290000B0003208DF80A0002A91D48FFF76CFD22
:1012A0001020ADF808008DF80B0003208DF80A001F
:1012B00002A91748FFF760FD4FF40050ADF8080091
:1012C00048208DF80B0003208DF80A0002A9114870
:1012D000FFF752FD0D210220FFF72EFD4FF40050C5
:1012E000009000208DF804000C208DF805000120EE
:1012F0008DF806006846FFF7D5FC00F005FD0020DC
:101300000549086001200549C1F890010EBD0000A3
:1013100000080140001001408C01214200002142E0
:1013200070B5072000F078F8044604F0400098B14A
:10133000602000F071F80546202D08D12A460F499B
:10134000612000F04BF800200D49088003E0FF21E8
:10135000E22000F0C9F800BF04F0100030B104F042
:10136000010018B1FF21E12000F0BEF800F00AF8FA
:101370002146272000F0B8F870BD0000940000203E
:101380002000002010B500201149086020213120E4
:1013900000F0AAF805220F492A2000F087F8012161
:1013A000212000F0A1F80121222000F09DF8002169
:1013B000252000F099F82721262000F095F80F212C
:1013C000202000F091F801200349C1F88C0110BDE4
:1013D0008C0121421B000020000021422DE9F04138
:1013E00007460D46164600200A490860384600F0B8
:1013F0004FFC8046002405E0FF2000F049FC285502
:10140000601CC4B2B442F7DB0120024908604046C8
:10141000BDE8F0819001214270B5044600200749E3
:101420000860204600F034FCFF2000F031FC054647
:1014300001200349C1F89001284670BD9001214266
:101440000000214210B5002014490860052214490B
:10145000302000F02BF8052212492A2000F026F84F
:101460000121212000F040F80121222000F03CF869
:101470001A21242000F038F80021252000F034F84B
:101480002721262000F030F80E21202000F02CF833
:1014900001200549C1F88C0110BD00008C012142DA
:1014A000160000201B000020000021422DE9F04121
:1014B00007460C46154600200A490860384600F0E9
:1014C000E7FB8046002605E014F8010B00F0E0FB86
:1014D000701CC6B2AE42F7DB0120024908604046EC
:1014E000BDE8F0819001214270B505460C46002010
:1014F00007490860284600F0CBFB0646204600F06E
:10150000C7FB01200349C1F89001304670BD0000BF
:10151000900121420000214270B504460D46FFF7BC
:1015200091FF0020054908602A462146A020FFF7C8
:10153000BDFF01200249C1F88C0170BD8C01214220
:101540000000214270B5002100230F22C47804B3AB
:10155000154C246804F4E064C4F5E064210AC1F188
:101560000403CA40447804FA03F184781440214308
:1015700009010E4C0678A155047804F01F050124DA
:10158000AC4005786D11AD0005F1E025C5F80041CE
:1015900009E0047804F01F050124AC40044D0678EE
:1015A000761145F8264070BD0CED00E000E400E047
:1015B00080E100E002490143024A116070470000E7
:1015C0000000FA050CED00E010B511480088401C41
:1015D0000F49088008460088012801D1FFF7F2FD75
:1015E0000B480088192190FBF1F201FB120008B9A9
:1015F000FFF796FE06480088322808DB08200549D8
:10160000086001200249088000200349088010BDBD
:1016100020000020100C01402600002008B54FF4E7
:10162000A060FFF7C7FF1D208DF8000000208DF897
:10163000010001208DF802008DF803006846FFF7D5
:1016400081FF28208DF8000001208DF80100002086
:101650008DF8020001208DF803006846FFF772FF45
:1016600017208DF8000003208DF8010000208DF870
:10167000020001208DF803006846FFF763FF08BDF4
:10168000014908627047000000000E4270470000E8
:1016900010B5044600BF8021084800F06DFE002808
:1016A000F9D02146054800F00AFF00BF4021034859
:1016B00000F062FE0028F9D010BD000000380140A3
:1016C00070B505462C4603E02078FFF7E1FF641C67
:1016D00020780028F8D170BD30B589B004462420A8
:1016E0008DF804004D208DF805008DF8064010207F
:1016F0008DF8070069208DF808003F4880798DF843
:1017000009003D48C088000A8DF80A003A4800796F
:101710008DF80B0038488088000A8DF80C00364898
:1017200080788DF80D0034484088000A8DF80E004E
:10173000314800788DF80F002F480088000A8DF896
:1017400010002E4800788DF811002C480088000AFF
:101750008DF812002A4800788DF813002848008878
:10176000000A8DF814002748007B8DF815002548E5
:101770008089000A8DF816003C2C1AD100202149DE
:10178000C8810846C08940F00100C8810846807BB6
:101790008DF817000846C089000A8DF8180001A8C6
:1017A000FFF7BEFB8DF81900202101A8FFF7B4FE5A
:1017B0001FE03E2C1DD11448008800F57A701149B5
:1017C000C8810846807B8DF817000846C089000A4A
:1017D0008DF8180001A8FFF7A3FB8DF8190000256C
:1017E00005E001A9485DFFF753FF681CC5B2162D3F
:1017F000F7DB09B030BD000098020020480000204F
:101800004600002088020020280000200146002019
:10181000034A506820F4404008435060704700007D
:101820000010024029B1064A52690243044B5A6132
:1018300004E0034A52698243014B5A617047000039
:101840000010024029B1064AD2690243044BDA6112
:1018500004E0034AD2698243014BDA617047000019
:101860000010024029B1064A12690243044B1A6172
:1018700004E0034A12698243014B1A617047000079
:101880000010024029B1064A92690243044B9A6152
:1018900004E0034A92698243014B9A617047000059
:1018A0000010024029B1064AD2680243044BDA60B4
:1018B00004E0034AD2688243014BDA6070470000BB
:1018C0000010024030B500210022002400232D4DDD
:1018D0006D6805F00C0121B1042905D0082923D138
:1018E00005E0294D056022E0274D05601FE0254DEC
:1018F0006D6805F47012234D6D6805F4803402257F
:1019000005EB92421CB9214D554305600BE01D4D7E
:101910006D6805F400351DB11C4D5543056002E0AE
:10192000194D5543056002E0174D056000BF00BF2B
:10193000144D6D6805F0F0010909154D6B5C0568E3
:10194000DD4045600F4D6D6805F4E061090A104DFA
:101950006B5C4568DD4085600A4D6D6805F460513B
:10196000C90A0B4D6B5C4568DD40C560054D6D686F
:1019700005F44041890B074D6B5CC568B5FBF3F579
:10198000056130BD0010024000127A0000093D00E0
:101990007E0000208E00002000210B4A11700A4AB0
:1019A000203A82F82010012802D0042808D103E050
:1019B0000121054A117004E00521034A117000E07D
:1019C00000BF00BF70470000201002400188B1F541
:1019D0007A7F02DC4FF47A7100E00188018001888F
:1019E000B1F5FA6F02DB4FF4FA6100E00188018083
:1019F0008188B1F57A7F02DC4FF47A7100E081884A
:101A000081808188B1F5FA6F02DB4FF4FA6100E062
:101A100081888180C188B1F57A7F02DC4FF47A71C8
:101A200000E0C188C180C188B1F5FA6F02DB4FF4D4
:101A3000FA6100E0C188C1804188B1F57A7F02DC9B
:101A40004FF47A7100E0418841804188B1F5FA6F26
:101A500002DB4FF4FA6100E0418841800189B1F571
:101A60007A7F02DC4FF47A7100E0018901810189FB
:101A7000B1F5FA6F02DB4FF4FA6100E001890181F0
:101A80004189B1F57A7F02DC4FF47A7100E0418937
:101A900041814189B1F5FA6F02DB4FF4FA6100E050
:101AA000418941818189B1F57A7F02DC4FF47A71F5
:101AB00000E0818981818189B1F5FA6F02DB4FF401
:101AC000FA6100E081898181704700002DE9F04FC3
:101AD00085B004460E460027B846B946BA460025EA
:101AE0005E490889FEF7B0FB4FF07A510490FEF78B
:101AF0003BFB8346FEF7ADFB00F57A705849098839
:101B0000401A208055498888FEF79EFB4FF07A5195
:101B10000490FEF729FB8346FEF79BFBC0F5FA60B5
:101B200050490988401AA0804C49C888FEF78CFBB0
:101B30004FF07A510490FEF717FB8346FEF789FBBE
:101B400000F57A7048490988401A608043494888FE
:101B5000FEF77AFB4FF07A510490FEF705FB8346BF
:101B6000FEF777FBC0F5FA6040490988401AE0802B
:101B700040F2DC5020816081A08138494889FEF71D
:101B800063FB364902900888FEF75EFB4FF0804108
:101B90000090FEF7E9FA01900299FEF717FB34492D
:101BA0000390FEF7E1FA33490490FEF7DDFA83462D
:101BB000FEF74FFB304908802046FFF707FFFEF78E
:101BC000E3FEA0882D492E4A127821F81200E08801
:101BD0002C492B4A127821F8120021882A48284AD9
:101BE000127820F8121060882849254A127821F8C6
:101BF000120000BF11E0214830F8150007442148C9
:101C000030F815008044204830F8150081441F4802
:101C100030F815008244681CC5B2052DEBDB0520A9
:101C2000B7FBF0F0B0800520B8FBF0F0F0800520A5
:101C3000B9FBF0F030800520BAFBF0F0708010485E
:101C40000078401C0E49087008460078052801D12C
:101C50000020087005B0BDE8F08F000038020020B9
:101C6000360000203A000020380000203C00002010
:101C70009A99993F0000C8422800002044020020A1
:101C8000320000204E020020580200206202002094
:101C900010B5044600BF02210A4800F075F800287C
:101CA000F9D02146074800F07BF800BF0121054824
:101CB00000F06AF80028F9D0024800F06EF8C0B2CF
:101CC00010BD00000030014010B5044607480088F0
:101CD0004FF6C77108400549088008460088204330
:101CE00008800121014800F003F810BD00300140D8
:101CF00021B1028842F04002028004E002884FF6DF
:101D0000BF731A400280704700B587B001210420DC
:101D1000FFF7B8FD01210803FFF7B4FDE020ADF89F
:101D2000040018208DF8070003208DF8060001A993
:101D30001348FFF721F84FF48270ADF80A004FF412
:101D40000070ADF812000020ADF81000ADF80E00E4
:101D5000ADF80C001820ADF814000020ADF8080014
:101D6000ADF816000720ADF8180002A9054800F0EC
:101D700019F801210348FFF7BBFF07B000BD0000C1
:101D800000080140003001400246002013890B404A
:101D90000BB1012000E000207047014688897047A0
:101DA0008181704710B50022028802F441520B88ED
:101DB0004C8823438C882343CC8823430C892343BA
:101DC0004C8923438C892343CC8923431A430280C3
:101DD000838B4FF2FF74234083830B8A038210BDF1
:101DE000704710B500F002F810BD00000CB50020DF
:101DF000019000903348006840F480303149086019
:101E000000BF3048006800F4003000900198401C8A
:101E10000190009818B90198B0F5A06FF1D1294848
:101E2000006800F4003010B10120009001E00020B3
:101E300000900098012843D12348006840F010002A
:101E4000214908600846006820F003000860084641
:101E5000006840F0020008601A484068194948606C
:101E60000846406848600846406840F48060486022
:101E70000846406820F47C1048600846406840F4FA
:101E8000E81048600846006840F08070086000BFB5
:101E90000C48006800F000700028F9D0094840683C
:101EA00020F00300074948600846406840F00200FF
:101EB000486000BF0348406800F00C000828F9D1D2
:101EC0000CBD0000001002400020024070470000DE
:101ED00010B51348006840F0010011490860084639
:101EE0004068104908400E494860084600680E499D
:101EF00008400B4908600846006820F4802008600C
:101F00000846406820F4FE0048604FF41F008860D7
:101F1000FFF767FF4FF000600449086010BD000044
:101F2000001002400000FFF8FFFFF6FE08ED00E0A1
:101F30001348008800F0010000B34FF6FE7010490E
:101F400008801048007800B970470F480068401CAE
:101F50000D4908600D480078401C0C4908700C4879
:101F60000078401C0A4908700A480078401C09495A
:101F7000087009480078401C0749087000BFE3E773
:101F800010040040740000202C00002000000020FD
:101F9000010000200200002003000020CA4302824A
:101FA000704721B1028842F00102028004E00288F9
:101FB0004FF6FE731A4002807047000010B50446C9
:101FC0006848844208D10121C014FFF76BFC00214E
:101FD000E014FFF767FCC4E0B4F1804F08D10121A1
:101FE0000846FFF73FFC00210120FFF73BFCB8E06B
:101FF0005D48844208D101210220FFF733FC002113
:102000000220FFF72FFCACE05848844208D10121A0
:102010000420FFF727FC00210420FFF723FCA0E0A9
:102020005348844208D101210820FFF71BFC0021FE
:102030000820FFF717FC94E04E48844208D10121A4
:102040001020FFF70FFC00211020FFF70BFC88E0A9
:102050004948844208D101212020FFF703FC0021D8
:102060002020FFF7FFFB7CE04448844208D1012197
:102070004014FFF717FC00216014FFF713FC70E019
:102080003F48844209D10121C804FFF70BFC00211D
:102090004FF40020FFF706FC63E03A48844209D180
:1020A00001210805FFF7FEFB00214FF48010FFF728
:1020B000F9FB56E03448844209D101214805FFF775
:1020C000F1FB00214FF40010FFF7ECFB49E02F4833
:1020D000844208D101214020FFF7C4FB00214020A9
:1020E000FFF7C0FB3DE02A48844208D1012180204F
:1020F000FFF7B8FB00218020FFF7B4FB31E0254853
:10210000844208D101218015FFF7ACFB0021A01506
:10211000FFF7A8FB25E02048844209D101210804EB
:10212000FFF7C0FB00214FF48030FFF7BBFB18E046
:102130001A48844209D101214804FFF7B3FB00216A
:102140004FF40030FFF7AEFB0BE01548844208D196
:1021500001218804FFF7A6FB00214FF48020FFF740
:10216000A1FB10BD002C014000040040000800400D
:10217000000C0040001000400014004000340140FA
:10218000004C014000500140005401400018004044
:10219000001C00400020004000400140004401407D
:1021A000004801401AB183890B43838102E083898F
:1021B0008B43838170470000002202881D4B9842A8
:1021C0000ED01D4B98420BD0B0F1804F08D01B4B66
:1021D000984205D01A4B984202D01A4B984204D12B
:1021E0004FF68F731A404B881A43174B984207D00B
:1021F000164B984204D04FF6FF431A40CB881A433F
:1022000002808B8883850B8803850A4B98420BD00C
:10221000094B984208D00E4B984205D00D4B98427E
:1022200002D00D4B984201D10B7A038601238382A1
:1022300070470000002C01400034014000040040C1
:1022400000080040000C0040001000400014004056
:1022500000400140004401400048014010B5FEF735
:102260007BFF03490348FFF731FCFFF7ADF910BDD1
:10227000980200208802002010B53C20FFF72CFABD
:1022800010BD00003EB5044601210220FFF7DAFA36
:10229000124804801248FFF791FE124890FBF4F0B8
:1022A00080B2ADF804004720ADF800000020ADF882
:1022B0000600ADF8020069460948FFF77DFF0121DD
:1022C0000748FFF76BFE012211460548FFF76AFF3A
:1022D00001210348FFF765FE3EBD000030000020ED
:1022E0000004004040420F0008B50821184800F0E3
:1022F00043F810B1164800F0DDF81548008800F0EA
:102300004000C0B1134801780078401C114A107099
:102310001148405C0E49091D0880104600780F499D
:102320000978884207D10A480C30008820F08000E4
:1023300007490C3108800648008800F0200028B1C9
:102340000348001D008840B2009000BF08BD000097
:102350000038014022000020D4000020230000208B
:1023600021B1828942F40052828104E082894DF6D3
:10237000FF731A408281704702460020B1F5007F4A
:1023800000D100BF13880B400BB1012000E00020FA
:102390007047F0B50346002400260025002040F6D3
:1023A0006A17B94200D100BF1846C1F3421401F0C8
:1023B0001F06012707FA06F5012C01D10C3004E0B5
:1023C000022C01D1103000E014301AB107682F43FD
:1023D000076002E00768AF430760F0BD2DE9F047F2
:1023E00086B005460E460024A24600BFA14600273F
:1023F000B08900B100BF2F462C8A4CF6FF70044014
:10240000F08804432C82AC894EF6F3100440B08867
:1024100031890843718908430443AC81AC8A4FF683
:10242000FF400440B0890443AC8201A8FFF74AFA98
:102430001F48874202D1DDF810A001E0DDF80CA0B2
:10244000A88900F4004040B10AEBCA0000EB0A1072
:1024500031684900B0FBF1F807E00AEBCA0000EB75
:102460000A1031688900B0FBF1F86420B8FBF0F085
:1024700004012009642101FB1089A88900F40040AF
:1024800040B1322000EBC900B0FBF1F000F00700D2
:10249000044308E0322000EB09106421B0FBF1F0A6
:1024A00000F00F0004432C8106B0BDE8F087000067
:1024B0000038014001468888C0F308007047C1F326
:1024C000080282807047000010B586B004460121E2
:1024D00044F20400FFF7D6F94FF40070ADF8140091
:1024E00018208DF8170003208DF8160005A91A484A
:1024F000FEF742FC4FF48060ADF8140004208DF824
:10250000170003208DF8160005A91348FEF734FCC8
:102510000C20ADF80E000020ADF80C000194ADF8D1
:102520000A00ADF80800ADF8100001A90B48FFF74C
:1025300055FF012240F225510848FFF72AFF0122EA
:1025400040F224410548FFF724FF01210348FFF72B
:1025500007FF06B010BD0000000801400038014030
:1025600000BFFEE702E008C8121F08C1002AFAD126
:1025700070477047002001E001C1121F002AFBD103
:1025800070470000FEF796F811E00948007814281B
:1025900004DB002006490870FFF760FE054800785C
:1025A000642804DB002003490870FFF765FEECE7B0
:1025B0000200002003000020A50000000000000031
:1025C000E0250008000000209400000064250008B9
:1025D00074260008940000201406000074250008EA
:1025E00000000000000000000000000000000000EB
:1025F00000000000000034431010013443101001AB
:1026000000000000000000000000000000000000CA
:1026100000000000010000000000000000000000B9
:10262000000000000000DC05DC05000000000000E8
:10263000000000000000000000000000000000009A
:10264000000000000000000000000000000000008A
:10265000000000000000000000000000000000007A
:102660000000010203040102030406070809020432
:042670000608000058
:0400000508000131BD
:00000001FF
